:020000040800F2
:1000000000000820E90900081D4900081F490008F0
:100010002149000823490008254900080000000084
:1000200000000000000000000000000061F5000872
:10003000274900080000000001F6000865F60008E6
:10004000390A0008390A0008390A0008390A000884
:10005000390A0008390A0008390A0008390A000874
:10006000390A0008390A0008390A0008390A000864
:10007000390A0008390A0008390A0008390A000854
:10008000390A0008390A000829490008390A000815
:10009000390A0008390A0008390A0008390A000834
:1000A000390A0008390A0008390A0008390A000824
:1000B000390A0008390A0008390A0008390A000814
:1000C000390A0008390A0008390A0008390A000804
:1000D000390A0008390A0008390A0008390A0008F4
:1000E000390A0008390A0008390A0008390A0008E4
:1000F000390A0008390A0008390A0008390A0008D4
:10010000390A0008390A0008390A0008390A0008C3
:10011000390A0008390A000835490008390A000878
:10012000414900084D490008390A0008390A000809
:10013000390A0008390A0008390A0008390A000893
:10014000390A0008390A0008390A0008390A000883
:10015000390A0008390A0008390A0008390A000873
:10016000390A0008390A0008390A0008390A000863
:10017000390A0008390A0008390A0008000000009E
:10018000390A0008390A0008390A0008390A000843
:10019000390A0008390A0008390A0008390A000833
:1001A00059490008390A000881490008390A00083D
:1001B000390A0008390A0008390A00088D49000880
:1001C000390A0008390A000899490008390A000864
:1001D000390A0008390A0008390A0008390A0008F3
:1001E000390A0008390A0008390A0008390A0008E3
:0801F000A5490008390A0008C6
:1002000010B5054C237833B9044B13B10448AFF350
:1002100000800123237010BD500100200000000069
:100220000CB5020808B5034B1BB103490348AFF3F3
:10023000008008BD00000000540100200CB5020839
:1002400001F0FF01102A2BDB10F0070F08D010F887
:10025000013B013A8B422DD010F0070F42B3F6D18B
:10026000F0B441EA012141EA014122F007047FF0A4
:1002700000070023F0E80256083C85EA010586EAFB
:10028000010685FA47F5A3FA87F586FA47F6A5FA37
:1002900087F68EB9EED1F0BC01F0FF0102F0070243
:1002A00032B110F8013B013A83EA010313B1F8D1EE
:1002B0000020704701387047002D06BF35460338CF
:1002C000073815F0010F07D1013015F4807F02BF08
:1002D000013015F4C03F0130F0BC0138704700BF59
:1002E00081F0004102E000BF83F0004330B54FEAE7
:1002F00041044FEA430594EA050F08BF90EA020F54
:100300001FBF54EA000C55EA020C7FEA645C7FEAE6
:10031000655C00F0E2804FEA5454D4EB5555B8BF09
:100320006D420CDD2C4480EA020281EA030382EA7A
:10033000000083EA010180EA020281EA0303362D0C
:1003400088BF30BD11F0004F4FEA01314FF4801CDF
:100350004CEA113102D0404261EB410113F0004FF1
:100360004FEA03334CEA133302D0524263EB4303A8
:1003700094EA050F00F0A780A4F10104D5F1200E46
:100380000DDB02FA0EFC22FA05F2801841F10001A1
:1003900003FA0EF2801843FA05F359410EE0A5F175
:1003A00020050EF1200E012A03FA0EFC28BF4CF0A6
:1003B000020C43FA05F3C01851EBE37101F000455C
:1003C00007D54FF0000EDCF1000C7EEB00006EEB69
:1003D0000101B1F5801F1BD3B1F5001F0CD34908F3
:1003E0005FEA30004FEA3C0C04F101044FEA44524A
:1003F00012F5800F80F09A80BCF1004F08BF5FEAD1
:10040000500C50F1000041EB045141EA050130BDB0
:100410005FEA4C0C404141EB0101013C28BFB1F5C2
:10042000801FE9D291F0000F04BF01460020B1FA0D
:1004300081F308BF2033A3F10B03B3F120020CDAE0
:100440000C3208DD02F1140CC2F10C0201FA0CF0BE
:1004500021FA02F10CE002F11402D8BFC2F1200C23
:1004600001FA02F120FA0CFCDCBF41EA0C019040D9
:10047000E41AA2BF01EB0451294330BD6FEA040422
:100480001F3C1CDA0C340EDC04F11404C4F120020D
:1004900020FA04F001FA02F340EA030021FA04F31F
:1004A00045EA030130BDC4F10C04C4F1200220FA76
:1004B00002F001FA04F340EA0300294630BD21FAB4
:1004C00004F0294630BD94F0000F83F4801306BF7A
:1004D00081F480110134013D4EE77FEA645C18BF6E
:1004E0007FEA655C29D094EA050F08BF90EA020F05
:1004F00005D054EA000C04BF1946104630BD91EAFD
:10050000030F1EBF0021002030BD5FEA545C05D1FF
:100510004000494128BF41F0004130BD14F580043E
:100520003CBF01F5801130BD01F0004545F0FE41B2
:1005300041F470014FF0000030BD7FEA645C1ABFE7
:10054000194610467FEA655C1CBF0B46024650EA1E
:10055000013406BF52EA033591EA030F41F400214A
:1005600030BD00BF90F0000F04BF0021704730B5D0
:100570004FF4806404F132044FF000054FF00001A5
:1005800050E700BF90F0000F04BF0021704730B566
:100590004FF4806404F1320410F0004548BF40423B
:1005A0004FF000013EE700BF42004FEAE2014FEA90
:1005B00031014FEA02701FBF12F07F4393F07F4F6B
:1005C00081F06051704732F07F4208BF704793F06E
:1005D0007F4F04BF41F40021704730B54FF4607481
:1005E00001F0004521F000411CE700BF50EA010284
:1005F00008BF704730B54FF000050AE050EA01022D
:1006000008BF704730B511F0004502D5404261EB9C
:1006100041014FF4806404F132045FEA915C3FF4DD
:10062000D8AE4FF003025FEADC0C18BF03325FEA7A
:10063000DC0C18BF033202EBDC02C2F1200300FA2B
:1006400003FC20FA02F001FA03FE40EA0E0021FA50
:1006500002F11444BDE600BF7BB972B90029BEBFE8
:1006600000204FF0004106E008BF00281CBF6FF0DB
:1006700000414FF0FF3000F0B5B9ADF1080C6DE965
:1006800004CE002909DB002B1ADB00F04DF8DDF861
:1006900004E0DDE9022304B07047404261EB410110
:1006A000002B1BDB00F040F8DDF804E0DDE902235D
:1006B00004B0404261EB4101524263EB4303704797
:1006C000524263EB430300F02FF8DDF804E0DDE96C
:1006D000022304B0404261EB41017047524263EB98
:1006E000430300F021F8DDF804E0DDE9022304B063
:1006F000524263EB4303704753B94AB9002908BF1C
:1007000000281CBF4FF0FF314FF0FF3000F06AB9F6
:10071000ADF1080C6DE904CE00F006F8DDF804E058
:10072000DDE9022304B070472DE9F047089D0C462F
:10073000002B4ED194468C458646B2FA82F262D99D
:100740004AB1C2F12003914020FA03F30CFA02FCF3
:10075000194300FA02FE4FEA1C471FFA8CF6B1FB60
:10076000F7F44FEA1E4307FB141143EA014304FB6D
:1007700006F199420AD91CEB030304F1FF3080F023
:100780001281994240F20F81023C6344591A1FFAC8
:100790008EF3B1FBF7F007FB101143EA014300FBB6
:1007A00006F69E420AD91CEB030300F1FF3180F0EC
:1007B000FC809E4240F2F980634402389B1B40EA71
:1007C000044000211DB1D3400022C5E90032BDE83C
:1007D000F0878B4205D90DB1C5E90001002108461B
:1007E000F5E7B3FA83F1002946D1A34202D3904240
:1007F000C0F0F080861A64EB03030120002DE6D0E0
:10080000C5E90063E3E7002A40F09080A1EB0C0407
:100810004FEA1C481FFA8CF70121B4FBF8F64FEAA7
:100820001E4308FB164443EA044307FB06F09842C4
:1008300008D91CEB030306F1FF3402D2984200F200
:10084000CD8026461C1A1FFA8EF3B4FBF8F008FB85
:10085000104443EA044300FB07F79F4208D91CEB0E
:10086000030300F1FF3402D29F4200F2B080204621
:10087000DB1B40EA0640A5E7C1F120068B4022FAC7
:1008800006F71F4320FA06FC04FA01F343EA0C03BF
:10089000F44000FA01F8380C4FEA1349B4FBF0FEBB
:1008A0001FFA87FC00FB1E4449EA04440EFB0CF9C6
:1008B000A14502FA01F20AD93C190EF1FF3A80F083
:1008C0008480A14540F28180AEF1020E3C44A4EB4D
:1008D00009041FFA83F9B4FBF0F300FB134449EA5F
:1008E000044403FB0CFCA44507D93C1903F1FF3079
:1008F00067D2A44565D9023B3C4443EA0E40A0FBC5
:100900000293A4EB0C049C42CE469C4651D34ED09D
:1009100055B1B8EB0E0364EB0C0404FA06F6CB40B9
:100920001E43CC40C5E90064002150E7C2F120031A
:1009300020FA03F10CFA02FC24FA03F394400C436E
:100940004FEA1C4800FA02FE1FFA8CF7B3FBF8F0DE
:1009500008FB1031230C43EA014300FB07F19942E5
:1009600008D91CEB030300F1FF362CD299422AD997
:10097000023863445B1AA4B2B3FBF8F108FB1133ED
:1009800044EA034401FB07F3A34208D91CEB040427
:1009900001F1FF3613D2A34211D902396444E41A9B
:1009A00041EA004139E70446F0E6084606E7C84553
:1009B000AED2B9EB020E63EB070C0138A8E7314663
:1009C000EDE7034699E73046D4E7D6467FE7634430
:1009D00002384DE70646234608460FE7023E6344C9
:1009E00030E700BF704700BFDFF834D0002103E0DC
:1009F0000C4B5B58435004310B480C4B42189A4245
:100A0000F6D30B4A02E0002342F8043B094B9A421A
:100A1000F9D309F0F3FA2AF09DF802F01FFE7047AF
:100A20000000082074F4020800000020500100209B
:100A30005001002010860220FEE77047704708B57D
:100A400001F038FDBDE8084001F0BABC01F034BD4A
:100A5000174B1A6B42F0010210B51A6386B01B6B7C
:100A600003F001030093009B59B90123039111483E
:100A7000CDE90131022301A904930AF017FD06B064
:100A800010BD0129FBD100240223019101A90948CD
:100A9000CDE903434FF4881302930AF007FD224681
:100AA0000F21062009F080FD062009F0AFFDE6E7E2
:100AB0000038024000000240002108B50846FFF758
:100AC000C7FF08BD0121024808B50AF06DFE08BD48
:100AD0000000024008B50020FFF7F4FF08BD4068A1
:100AE00070474160704700004FF0E022D2F8FC3DB3
:100AF00043F08073C2F8FC3D054B064AD3F8B01FA3
:100B00000A43C3F8B02F1A6842F001021A60704716
:100B1000001000E055CEACC5521A02EB5302B2FBF6
:100B2000F3F07047014B5868704700BF001000E0B9
:100B3000704710B504460C2129F03FF9204610BD3E
:100B4000036810B51B69044631B19847A268636811
:100B50009B1A0344636010BD9847A060FBE7704791
:100B60007047000008B5FFF7A7FF024B00221A608C
:100B700008BD00BF6C01002070B50D46FFF7AAFF4D
:100B80000B4AC4B293785678117813F00100D370F1
:100B90009670517014700AD016F0010007D011F051
:100BA000010004D0E30756BF01200020287070BD6B
:100BB0006C01002010B50446042129F0FEF82046FF
:100BC00010BD704710B50446042129F0F6F8204600
:100BD00010BD70477FB501238DF817204FF47A724E
:100BE000CDE901320DF1170200920A46014606488E
:100BF0000AF072FF20B104480AF055FF02F00CFD24
:100C000007B05DF804FB00BF782101207FB5002309
:100C10000A464FF47A718DF817300123CDE901317E
:100C20000DF117010091014606480BF02FF820B195
:100C300004480AF038FF02F0EFFC9DF8170007B0F7
:100C40005DF804FB782101201FB54FF47A740092FF
:100C50000A4601460748CDE9013401230BF016F896
:100C6000044620B103480AF01EFF02F0D5FC2046DE
:100C700004B010BD78210120F8B5134D0646134C81
:100C80000F462B68207898476B6854209847C0B26D
:100C9000112809D06B68702098477023C0B2237068
:100CA000112803D00320F8BD54232370084BBE4203
:100CB0002CBF0C26012620781E70AB689847207840
:100CC000EB6898470020EEE7380000208101002003
:100CD0008201002008B54FF4F0714FF44870FFF71F
:100CE000CBFF074B10B901221A7008BD1B78002BEF
:100CF000FBD1044B6A21044A044829F0D5FB00BF0C
:100D000080010020ACB50208BFB50208E9B50208B1
:100D10002DE9F04F344A0546DFF8DCA085B01078A5
:100D2000DAF810309847287050B1304EA946304F4D
:100D30000DF10C0B02AC4FF000082B78984503D353
:100D4000002005B0BDE8F08F27485A462146DAF862
:100D50001430007808F101089847264BB446BE4687
:100D60001B7804360437190741BF2288BBF80010EE
:100D7000ABF8002021809A0741BF2288C2F5477254
:100D8000033222805B0756F8042C48BFBBF80030C2
:100D900034F8020B42BFC3F5EF730133ABF80030F8
:100DA00093B290423BF8021B8CBFC31A1B1A9BB232
:100DB000019357F8043C9AB29942019B8CBF8A1A5E
:100DC000521A92B21344052BC8BF46F8040CDCF843
:100DD0000030C8BF47F8041C29F8023FDEF8003095
:100DE000A9F80430A9E700BF8101002078010020A4
:100DF0007001002082010020380000207FB50B4BDD
:100E00000E4615461C781CB90024204604B070BD5F
:100E100001A8FFF77DFF9DF80430002BF4D0BDF84A
:100E200006303360BDF80A302B60EEE78001002009
:100E3000032823D8DFE800F0020B121A104B4021E0
:100E40001A68B2FA82F252090E480AF0B3BC0C4B8F
:100E500080215A68B2FA82F25209F5E7084B022162
:100E600009489A68B2FA82F25209EEE7044B40212F
:100E70000648DA68B2FA82F25209E6E7704700BF24
:100E800084010020000802400024024000140240B7
:100E9000032823D8DFE800F0020B121A104B402180
:100EA0001A68003A18BF01220E480AF083BC0C4BA6
:100EB00080215A68003A18BF0122F5E7084B022149
:100EC00009489A68003A18BF0122EEE7044B402116
:100ED0000648DA68003A18BF0122E6E7704700BF0B
:100EE0008401002000080240002402400014024057
:100EF00003280FD8DFE800F00206080B402106485F
:100F00000AF05DBC8021FAE702210448F8E740219D
:100F10000348F5E7704700BF000802400024024084
:100F20000014024008B5032813D8DFE800F0020AD5
:100F30000C0F402108480AF037FC431E5842584124
:100F400008BD8021F6E702210448F4E74021044867
:100F5000F1E70020F1E700BF000802400024024052
:100F60000014024070B5084D00240126E0B2FFF7DE
:100F7000D9FF18B12B68012B18BF2E60013404353E
:100F8000052CF3D170BD00BF84010020012380F83F
:100F9000781080F87930704700207047416400393C
:100FA000024B18BF01211970704700BFD77902208A
:100FB00000207047836B0BB10846184770474FF607
:100FC000FF707047406803689B691847014B1868B9
:100FD000704700BFA801002070470000F0B4002354
:100FE000104CC4F88430BFF34F8FD4F8803043F6F0
:100FF000E076C3F3C905C3F34E335B0103EA060C85
:101000002A464CEA8277013AC4F87472F9D2203B3E
:1010100013F1200FF2D1BFF34F8FBFF36F8FF0BCEE
:1010200001F05EBB00ED00E008B501F0DBFA024B19
:101030000422DA6008BD00BF00E100E010B50446FC
:1010400001F05EFC94F84B3013B1024B01221A7090
:1010500010BD00BF1400002001F0CDBA10B5044649
:1010600011F080FC23682046D3F8AC30BDE8104076
:10107000184710F0D5BE10B504467C2128F09DFE1F
:10108000204610BD024B00221A7010F005BF00BFB1
:101090001400002038B50446074D01F0FBFA002388
:1010A000284684F84A30FFF71FFD0123256184F8A4
:1010B0007030024B636138BD9C0100209801002014
:1010C0000368044607B5D3F8803098472368204664
:1010D0009B6F984700F004FF236820461B6F9847DA
:1010E000002129231522054800910AF058F900F043
:1010F000F7FE236820461B6F9847F8E7CC210120B4
:1011000008B501F067FA002207215A2009F04CFACD
:10111000002207216220BDE8084009F045BA00001E
:1011200090F834100D4B10B590F878401A788C4236
:1011300009D03AB90A490B4A08881488108001225C
:101140000C801A7010BD002AFCD0064A044914888D
:1011500008880C8010800022F3E700BFD0790220BD
:10116000CE790220CC79022008B5094B1B888B422E
:1011700003D8084B1B88934205D9074B9E21074A89
:10118000074829F091F9074B1980074B1A8008BDD1
:10119000CC790220CE79022048B60208ABB602080C
:1011A000EEB60208D2790220D479022008B501F007
:1011B000DFFB044B0422C3F88C20BFF34F8FBFF337
:1011C0006F8F08BD00E100E0034690F87A0018B187
:1011D000586803681B6818477047000070B50D46D3
:1011E00019460B4B1D6035B90A4B40F2D2210A4A11
:1011F0000A4829F059F9C0E90F52003A084B18BFC4
:1012000001221A700368BDE87040D3F88C3018478B
:10121000A801002033B702086BB70208EEB6020837
:10122000D6790220C0E90112C3604FF48072002316
:10123000C0E912231D4A038580F82A30C362038661
:1012400080F85830436680F87030436770B5C0E965
:101250001A23BDF81050164ABDF814602035C0E9B5
:101260000433C0E90633C0E90833C0E90E33C0E9EE
:101270001033C0E91433C0E917338267ADB20D4AA9
:10128000B54210600C4A15800C4A158028BF002515
:101290000B4A38BF012516800A4A80F83450168060
:1012A000094A1370094B036070BD00BF01000001C3
:1012B00000000101D8790220CC790220D2790220E5
:1012C000CE790220D4790220D0790220C4B7020856
:1012D00008F0DEBE0128034607B50AD84B78152270
:1012E000084800930B7800210AF059F803B05DF824
:1012F00004FB01910A5C00210248009239220AF0A5
:101300005FF8F3E7CC21012037B502230A4A1525FF
:101310000A4C13700021557020460192442200921D
:1013200039220AF04DF8002135232A462046009143
:101330000AF035F803B030BD94010020CC21012023
:1013400010B50446FFF7E0FF0F4B022220461B6852
:10135000C3F810240122C3F81024D3F8082442F063
:101360000102C3F80824D3F8082442F00202C3F8AB
:101370000824064B1A68536B43F00303BDE8104082
:10138000536301F037B900BFCC210120B81F012001
:10139000074B03EB800307B501932A233922002171
:1013A0000093042303480AF00BF803B05DF804FB34
:1013B00004000020CC21012070B5154D044600200A
:1013C000FFF736FD2A6892F86A30013382F86A30F6
:1013D00000F07AFD0F4B28681A781B7880F84A20B5
:1013E00023B10D4D2B7803F0FF0623B10020BDE89B
:1013F0007040FFF74DBD11F0B5FA084B30461E6046
:10140000FFF7C6FF204609F0BAFF01232B7070BD1D
:10141000D879022014000020B0010020AC01002087
:10142000304B70B5304C05461868D4F804140130C0
:1014300021F00801186003282C4B1A682C4BC4F8C3
:10144000041427DC4FF4C87101FB0022C3F8AC2060
:101450000CBFE823C823264A02331B0443F4F1736C
:101460001361244B5361A3F5F073C2F88830224B0B
:10147000C2F8B03001235362FFF78AFF1A4A2846A8
:10148000D2F8043443F00803BDE87040C2F80434D5
:1014900009F075BFC3F8AC200020184A1A6102F1A8
:1014A00001125A61164AC3F88820134AC3F8B020C3
:1014B00001225A62FFF76CFFD4F80434002043F095
:1014C0000803C4F80434FFF7E3FC0E4B00221A7043
:1014D0000D4B186820B10368BDE870401B6A1847BF
:1014E00070BD00BFAC010020006C0140A8010020CD
:1014F00000680140E301CA0093018006E201CA00CE
:101500000300CA00B0010020D8790220014608B5C6
:10151000034B186801B1012111F03EFA012008BD0A
:10152000D8790220054B002205485A609A60054A86
:101530001A60054B0360FFF715BB00BF9C0100203C
:101540009801002070B5020898B5020840697047FC
:1015500090F840007047036B23B9C06A003818BF89
:101560000120704701207047806870477047043041
:1015700010B50C460FC884E80F0010BD704700007E
:1015800008B5034A40F2CF11024B034828F08CFF04
:1015900094B802081BDD0208EFB8020810B5044633
:1015A000442128F00AFC204610BD000038B5002573
:1015B0000F4B04460360C56380F84050C0E90555F1
:1015C000C0E90755C0E90955C0E90B55C0E90D55FB
:1015D000C0E90355C0E9015501F048FE2A462946F5
:1015E00001200DF087FC034B1860204638BD00BF7A
:1015F00070BB0208C801002010B40C4611461A4600
:10160000036B3BB1C36B406BE41A20445DF8044BA1
:1016100029F0EEB9C06AF8E7036B10B573B1C36B7C
:10162000426BC91A5318525C98785C78000440EAFF
:1016300004201043DB7840EA036010BDC26A5318EF
:10164000525C59789878000440EA0120F1E7036B76
:1016500043B1C36BC91A436B5A18585C527840EABD
:1016600002207047C36A5A18585C537840EA032036
:101670007047000070B50446006B0D461646D8B1A1
:10168000A36B934208D209230D4AAB210D4884F87D
:1016900040300D4B28F008FF0368DB689847206B4B
:1016A0003246616B03681B69984710B90D2384F8B3
:1016B0004030606BE56370BDE06A0844FBE700BF43
:1016C00053B90208EFB8020840B902082DE9F843FF
:1016D000436904462BB9224BF121224A224828F0C3
:1016E000E3FE08228169FFF7C5FFA16943F23006D6
:1016F00046F2643704312046FFF78EFFA369184491
:10170000A36A00F108029A4206D301230020636114
:10171000236AA361BDE8F883636900F10901082227
:101720002046013321F001016361A161FFF7A2FFAF
:10173000D4F8189020464946FFF789FF09F10201C5
:1017400080462046FFF783FF09F104010546204645
:10175000FFF762FFB045D1D1BD42CFD10120D9E71B
:1017600095B90208DEB90208EFB80208012903683A
:1017700038BF0121DB6A70B50D4604469847A84280
:1017800004D223682046DB6A984705466B1EE6694B
:101790001022204606EB031606F10801FFF76AFF48
:1017A00006F110012046FFF737FF236A043B03448C
:1017B000C4E9055370BD0000002148222DE9F04125
:1017C0000446816180F84010FFF754FFA6690423A6
:1017D000634A31462046FFF70FFF48B10323614AB1
:1017E00040F2391184F840305F4B604828F05CFECD
:1017F00006F1080104235E4A2046A161FFF7FCFEC2
:1018000038B10423574A40F2411184F84030594B13
:10181000EBE706F10C010423574A2046A161FFF7CC
:10182000EBFE074638B105234E4A4FF4A47184F805
:101830004030524BD9E706F110012046FFF7ECFE8D
:10184000054620B94E4B4FF4A771464ACDE706F145
:10185000140804234B4A20464146FFF7CDFE0028DA
:1018600049D0062384F840300423474A06F1180182
:101870002046FFF7C1FE00283FD0072384F8403000
:101880004544424F0C2220462946FFF7F3FE05F15E
:10189000080604233A4620463146FFF7ADFE94F889
:1018A0004030002848D0002B48D1A36AAB4249D829
:1018B00005F10C0304352046A3612946FFF7ACFE71
:1018C0003044294660622046FFF7A6FE0644042203
:1018D00020463146FFF7CEFE04232D4A31462046EE
:1018E000FFF78AFE002838D10123E6616361A3690E
:1018F0002362BDE8F0810127B6E7002FC0D006F1D2
:1019000020012046FFF788FE4FF47A7306F130017C
:10191000B0FBF3F060602046FFF77EFE06F1400169
:10192000A0602046FFF778FE06F14401E060204603
:10193000FFF772FE2061A3E7002BB9D00A2384F8D9
:101940004030D6E7291D2046FFF766FE85190C2298
:1019500020462946FFF78EFE99E70B23EFE700BFED
:1019600011BA02082FBA020816BA0208EFB8020824
:101970005CBA020861BA020879BA02087EBA0208A3
:1019800094BA0208A0BA0208A5BA0208AABA0208C4
:10199000AFBA0208C0E90A2100220263FFF70CBFB8
:1019A00010B5002304460846E3620B6821639B6878
:1019B0009847A0622046BDE81040FFF7FDBE00003A
:1019C00037B5144C144D23600024144B1C60144B89
:1019D0002C601C60134B1C60134B1960134B1A6076
:1019E000134B1C60134B2A680C251C709C601C73E5
:1019F0005C6105FB0233104A4FF4C075D2686A433C
:101A000000924FF450425B680AF0B2FD204603B0EA
:101A100030BD00BFF8970020D0970020E497002049
:101A2000D8970020F4970020EC970020F097002032
:101A3000CC01002018000020B401002008B54B683C
:101A40000846012B19D1CB681A071E4A1EBF23F086
:101A50000F031033CB608B6819071B491EBF23F09F
:101A60000F031033836001F09FFB48B3174B40F224
:101A70003121174A174828F017FD022B17D1CB68E0
:101A80001A0703D023F00F031033C36083685A078B
:101A90001EBF23F00703083383600A4A0A490FF088
:101AA00093FE68B1094B40F25221094AE2E7002B4C
:101AB000F3D1CB685907E9D023F007030833E4E7F3
:101AC00008BD00BFDC970020D4970020B4BA0208FC
:101AD000C5BA0208EFB802080B4A13680B4430B4C9
:101AE00013600A4A126893420CD2094CD21A256834
:101AF000B2F5504F294428BF4FF45042216030BC0A
:101B00000AF09DBD30BC7047F4970020F09700208C
:101B1000EC97002070B5194C0C21194D064623682E
:101B200001204B43E854236801FB03539A60236868
:101B3000034423602368834201D900232360236880
:101B40000C225343EB5C33B1022130460AF044FDD2
:101B50000C4B01221A6022680C210B4B304601FB12
:101B600002554FF4C072DB6869685A430AF06AFD97
:101B7000064BBDE8704018680DF050BAD0970020B1
:101B800018000020E4970020B4010020C8010020C4
:101B900072B6FEE7014B01221A607047E8970020F9
:101BA0002DE9FF41384D0C26384C2B687343E35C1C
:101BB000012B49D1364A5369DB031ED50023C2F8F5
:101BC0008430BFF34F8FD2F8803043F6E076C3F312
:101BD000C900C3F34E335B0103EA060C01464CEA2D
:101BE00081770139C2F87472F9D2203B13F1200FCA
:101BF000F2D1BFF34F8FBFF36F8F0C27254E2868AC
:101C00000DEB0703326807FB004023490093234B89
:101C10000968D3F8008083684068C04733680021B2
:101C2000034433602B685A1C7B43022A04EB0300F5
:101C3000E15428BF00221A4B81601B682A60326879
:101C40009A420FD1012018E016490A68012A17D1DB
:101C5000154A12687243A25C134311D10B60022132
:101C60000AF028FF0B4B1A680D4B1B689A4209D1EA
:101C70000E4B1868003818BF012004B0BDE8F08191
:101C80000220FAE70020F8E7D8970020180000208B
:101C900000ED00E0CC010020F8970020D497002050
:101CA000DC970020E4970020D0970020E8970020E0
:101CB00070B5002A30D0002B2ED0184D02242C6194
:101CC000C468006926074FF4C86618BF24F00F04E3
:101CD0006E6018BF103410F00F002C6018BFC0F1F8
:101CE00010002409A860EC600D4D0E4C0C48FFF765
:101CF00067FE2846FFF754FF20602368022B05D1BA
:101D0000094B4FF0FF3118680DF04CF92368012B97
:101D1000EFD1064B00221A6070BD00BFB401002055
:101D200020210120E0970020C8010020E897002032
:101D30002DE9F04F9946436985B004460F46904619
:101D40002BB9294BBD21294A294828F0ADFB08228F
:101D50008169FFF78FFCA66920463146FFF777FCC3
:101D6000B11C83462046FFF772FC311D8246204697
:101D7000FFF752FC06F10801A36A054642189A4291
:101D800026D243F230039B4517D146F264339A457D
:101D900013D190B10246A1612046FFF76BFC0E9B68
:101DA00001462A462046CDF80080CDE901933B4606
:101DB000FFF77EFF636901336361A3692B4405B9B3
:101DC00008330133626A23F001039342A36109D10E
:101DD000012301206361236AA36180F0010005B043
:101DE000BDE8F08F0020F8E795B902080DBB0208A6
:101DF000EFB80208F8B50446816916460822FFF7D5
:101E000039FCA7692046391DFFF706FC07F10801D8
:101E1000024605462046FFF72DFC01466EB12A46D4
:101E2000074C084D33460748FFF7CAFD2846FFF721
:101E3000B7FE20602368002BF8D00120F8BD00BF5A
:101E4000E0970020202101200121002208B508464A
:101E50000DF050F80A4B186028B90A4B28210A4A9D
:101E60000A4828F021FB0022042101200DF00CF982
:101E7000074B186018B9074B2C21034AF0E708BD3F
:101E800000980020ACBB0208F5BB020824BC020885
:101E9000FC9700206BBC0208024B4FF0FF31186822
:101EA0000DF080B800980020014B18680DF0B6B80E
:101EB00000980020024B002118680DF073B800BF95
:101EC00000980020FFF7F0BF0023034803491A469B
:101ED00000680DF01FB900BFFC9700203000002003
:101EE00013B50023074C01A91A4620680DF054F9D8
:101EF0004FF0FF33002201A920680DF04DF902B028
:101F000010BD00BFFC97002003685B6C18470120E0
:101F1000704703689B6A18470D4B82B01A6B42F4F6
:101F200000021A631A6B02F400020192019A1A6904
:101F300042F400021A611A6922F400021A61054B88
:101F4000054A9A614FF08062044B9A6002B0704774
:101F500000380240E8210120E921000800E100E00A
:101F600040F2EF3070470000054B4FF08062036095
:101F7000044BC3F88820BFF34F8FBFF36F8F7047B8
:101F800004BE020800E100E010B504464FF45A61B7
:101F9000FFF7EAFF204627F010FF204610BD0000A3
:101FA00008B50A2809D8DFE800F006100E0808086E
:101FB000081010101000022008BD054B8621054AAC
:101FC000054828F071FA0020F6E70120F4E700BF89
:101FD000ADBC0208C8BC020813BD020838B50C46E7
:101FE000887FFFF7DDFF174BA58AE28A586342EA34
:101FF000054221695A64628BD963521B1A642568B1
:10200000082D0ED19A611A6158620F4A207F42EA68
:102010000062DA61E2681A620C4A5961D9601A609A
:1020200038BD0022D8611A61E1680A0A4809C1F383
:10203000C40102F4784200F4FC6002430A439A634C
:10204000034AECE700B0024009000100010202006F
:102050000102030008B50B280BD8DFE800F00612D8
:10206000100A0A0A0A0808080808022008BD052004
:10207000FCE7054B6521054A054828F015FA0020C4
:10208000F4E70120F2E700BFADBC020858BD02082A
:1020900013BD02082DE9F04191F81D800C46404621
:1020A000FFF7D8FFA77F05463846FFF7D3FF064660
:1020B0003846FFF775FFA18A628B434B521A1A64A8
:1020C0009A61228B521A1A61E28A586342EA0142EB
:1020D00021695A646268D963DA602068802828D050
:1020E000227F0FD8202866D0402864D004281AD038
:1020F00045EA0265344BB84545F40035DD6160D0F2
:10210000324A44E0B0F5807F04D0B0F5007FEFD1D3
:102110002F4800E02F4840EA0262DA61E2681A6262
:102120005E62596132E045EA026242F40032DA61ED
:10213000F6E7A068021DDA62227F45EA026545F4EF
:102140000035DD615E625961017841B1012921D01C
:10215000214B4FF48871214A214828F0A5F9DA690A
:10216000418822F47F42013922F0100242EA012222
:102170000121DA61144BDA6942F02002DA61DA698E
:102180009206FCD410229A600029B9D0154A1A6030
:10219000BDE8F081B2F1FF01DA69408822F47F42A4
:1021A00018BF0121013822F0100242EA002242F059
:1021B0001002DA61DEE745EA0262034B42F40032C4
:1021C000B5E740F20122E2E700B00240010201005F
:1021D000090002000A000200A2BD0208BCBD0208FC
:1021E00013BD020801020200024B1B685868036815
:1021F0005B691847D879022070B504460A4B0C3049
:1022000000262546602260602672667245F8203BF3
:10221000294610F017FD04F55A63EE6024359D42FF
:10222000FBD1204670BD00BF04BE0208034B1A68F4
:10223000D207FCD423229A60704700BF00B002404E
:1022400030B5104C2568ED07FCD423250904FF2B7D
:10225000A56041F001014FF0020565636164E06330
:102260000AD00949656241EA0363E361074B2262D0
:102270006061E060236030BDE561039BA363044BB4
:10228000F8E700BF00B002400900010001000200B1
:1022900001000300012070470C2070470C2303FB52
:1022A0000100083070470C2303FB01000830704721
:1022B0000120704743F2D840704743F2D84303FBF4
:1022C00001000830704743F2D84303FB0100083097
:1022D0007047012070471020704700EB0110083054
:1022E000704700EB011008307047084602F054BDFB
:1022F000034B10B5044603600FF0EBFA204610BD07
:10230000BCBE020810B50446FFF7F2FF14212046B8
:1023100027F053FD204610BD034B10B50446036063
:102320000FF0D7FA204610BD88BE020810B504464B
:10233000FFF7F2FF43F2E041204627F03EFD204642
:1023400010BD0000034B10B5044603600FF0C1FA46
:10235000204610BD54BE020810B50446FFF7F2FF38
:102360001821204627F029FD204610BD094B10B545
:102370000446036000F554500C30FFF7B9FF04F138
:102380002C00FFF7C9FF04F11400FFF7DBFF204624
:1023900010BD00BFF0BE020808B50248FFF7E6FF17
:1023A00008BD00BFD0A6002010B50446FFF7DEFF31
:1023B0004FF45A51204627F000FD204610BD000082
:1023C0002DE9F34102F062FB0024054602F062FBB6
:1023D0002346014622462846009419F01BFB274B52
:1023E000274A2046274D1A6007F06CFA264B274AE9
:1023F00027489A6019F076FA2B68BFF35B8FDB07EA
:1024000036D4284627F0DBFC90B3224C224F234BD6
:1024100004F1140007F1180604F12C082360606031
:10242000C4F80880E76026610FF054FA1C4B404660
:1024300063610FF04FFA1B4B3846E3620FF04AFA24
:1024400004F54053184A03F5A460C3F80C2507F0BF
:10245000BDFA224607F11401304607F0ADFA3046C6
:1024600002F09AFC114828F03DF8284627F0B3FC0A
:102470000F4802B0BDE8F041FEF70CBE3C7A0220E6
:1024800080980020CCA60020A098002084980020EE
:1024900034000020D0A60020DCDB0020F0BE0208C3
:1024A00054BE020888BE0208BCBE02089923000878
:1024B00004980020704700000148FEF701BE00BFED
:1024C0000498002073B50E4C0E4B0F4E20460F4D56
:1024D0003360FFF791FE28461DF07CFD0C4816F096
:1024E000A3FF4FF448734FF4F07221460948CDE939
:1024F000003233462A46FEF795FE02B070BD00BF9B
:102500002899002038B60208C8A60020A09800200C
:1025100084980020049800200148FFF725BD00BFE3
:10252000289900200020704781807047C180704743
:10253000018170474181704770477047704770470D
:10254000704710B4C4880368121B84885B6D091B34
:1025500012B25DF8044B09B218474FF6FF7383813E
:102560004FF0FF3303621368C361106070470020AF
:1025700070478B88838001207047704780F8261051
:10258000704790F826007047002210B5B1F9084056
:10259000B1F90A10028042808480C18010BD0022FF
:1025A000028042808280C28070470177704780ED50
:1025B000080A704780F82410704780F8251070478B
:1025C00001207047983070478C30704784307047D6
:1025D00070470000024B902283F85A23704700BFD7
:1025E00000E100E0024B4FF080629A60704700BF4C
:1025F00000E100E070477047124A5369DB0370B591
:102600001ED50023C2F88430BFF34F8FD2F880303C
:1026100043F6E074C3F3C900C3F34E335B0103EA2E
:102620000406014646EA81750139C2F87452F9D2AE
:10263000203B13F1200FF2D1BFF34F8FBFF36F8F09
:1026400070BD00BF00ED00E00163C0E90D217047DF
:1026500070477047704700EB81001146406803687F
:10266000DB68184780F83C10704710B504462C21F1
:1026700027F0A3FB204610BD10B50446482127F0E3
:102680009CFB204610BD10B50446BC2127F095FBED
:10269000204610BD38B504460FF017FC23685D6E68
:1026A00015F094FD01462046A847236807492046B7
:1026B000D3F8885000231A46A847054B054A5A60AC
:1026C000054A1A639A63054A5A6338BD00B80BC0BD
:1026D00010DE002058DE0020000000C000B80B0013
:1026E0000FF0A4BB0FF005BD38B504460D46406C95
:1026F0004FF0FF310CF0A2FB606C0CF0CFFB2423F9
:1027000003FB0545002385F8283094F828300BB9E1
:10271000236BA36338BD90F8252012B103685B6971
:102720001847704708B531B1044B4FF4B871044AEB
:10273000044827F0B9FE90F8290008BDFCBE020845
:1027400010BF02089AC0020810B531B1064B4FF411
:10275000B571064A064827F0A7FE4068114603688F
:10276000BDE810401B6B1847FCBE0208DDC0020824
:102770009AC0020808B529B1034B7921034A0448DD
:1027800027F092FEC06808BDFCBE02088BC202089A
:102790009AC0020810B5044629B1194BA221194A62
:1027A000194827F081FE052A15D8DFE802F0031149
:1027B00015171C22406803681B69984758B101230C
:1027C00084F8293084F82C300023C4E9043302E073
:1027D000002380F8293010BD0362F5E7036201236E
:1027E00080F82A30F0E7002380F8293001230362C3
:1027F000F1E7003B18BF012380F82D30EBE700BF65
:10280000FCBE020840C402089AC0020810B50C467B
:1028100011461A462CB1064B9021064A064827F06D
:1028200043FEC46040680368BDE810409B681847D9
:10283000FCBE020814C602089AC0020808B529B1F5
:10284000054B8221054A064827F02EFEC0E90411F7
:10285000C0E9063208BD00BFFCBE0208EFC702088F
:102860009AC0020890F83D3010B5044653B14FF0BD
:10287000FF31406C0CF0E2FA002384F83D30012374
:1028800084F83E3010BD90F825201AB190F824202D
:1028900002B118607047000010B50446104629B117
:1028A000134BD021134A144827F0FEFD94F8293029
:1028B00033B1124B1B6893F86B2063691344636157
:1028C00094F82B300BB9012010BDA3680363036893
:1028D0005B699847002394F82C0084F82B3000287B
:1028E000F1D194F82D30002BEED184F82900EBE7DC
:1028F000FCBE0208ABC902089AC00208D8790220BF
:1029000070B51A4C05460FF0D3FA94F8293013B974
:1029100094F82A30ABB1E169D4E905325343226916
:102920004A4393420DD394F83C0038B19B1AB3FB51
:10293000F1F2994298BF02F1FF326262012384F8FA
:102940002E300123206C84F83D300CF067FB94F8A6
:102950003E302BB1606C0CF0A1FA002384F83E30BD
:1029600068680368BDE870401B69184710DE0020E6
:10297000044B4FF08062C3F88820BFF34F8FBFF342
:102980006F8F704700E100E0034690F8280070B5B3
:10299000D8B901229D6BD8609A624FF48072186199
:1029A0009A8505F53B22586102F500629861D8616D
:1029B0001862586283F82E00D3E90C463444A242D0
:1029C0000AD90B4B52210B4A03E00B4B40F2C511C5
:1029D0000A4A0B4827F068FD9D609A634FF44873DC
:1029E00081F83400CB864FF4F07308630B8770BD19
:1029F00003CD02083ECD02084CCB02087CCB020876
:102A00009AC00208002370B5124E05468380124B0F
:102A10000360336893F858200AB1D86C00B99868FD
:102A20000368DB6A98473368B0FA80F4D86C6409AD
:102A300030B10368DB6A9847002808BF44F00104FE
:102A40002CB9064B2C21064A064827F02DFD2846B6
:102A500070BD00BFD8790220E4CF0208E1CE0208A1
:102A60003FCF020878CF020870B5244E3568BFF317
:102A70005B8F15F001053FD1304627F0A0F9002803
:102A80003AD01F4C1F4B04F134002561E584A56248
:102A9000A585C4E90035C4E9025516F024FF04F108
:102AA000580011F0BBFC184B2046A365174B40F8AB
:102AB000843BFFF7A7FF164B1648C4F88430243335
:102AC000C4F89050C4F88C306423C4F89C50C4F807
:102AD000A850C4E928350023C4F8AC30C4F8B0309D
:102AE000C4F8B430C4F8B8300B4BC4F8983027F0B1
:102AF000F9FC304627F06FF9014870BD50DD002029
:102B000054DD002038E8020804D002087CD0020816
:102B1000ECE70208D1250008CCE702082DE9F743CD
:102B2000044601264FF4C8674FF0FF31206C0CF0CB
:102B300039FA4FF0FF31606C0CF080F994F82E30C8
:102B400043B36568D4F820802B6884F82B60B8F113
:102B5000000F23D05B6A4146284698470023236232
:102B60002B684FF4487200972846D3F814804FF42E
:102B7000F073A168C047236984F82C0001332361F6
:102B8000F0B12B6828469B6A984701380023E06023
:102B900084F82E30606C0CF081F9C5E7626A002A77
:102BA000DED02846D3E909939847616A0144284654
:102BB000C8472369626AC4F8248013442361CFE7BD
:102BC0000120E3E7014808B5FFF7A8FF10DE002069
:102BD00038B514480025FEF7E9FC134C134B2A4680
:102BE0002946012023604FF48073A563A387A38542
:102BF00084F83E5084F82E50C4E90C55C4E91055B1
:102C0000C4E90155C4E90355C4E90555C4E90755AC
:102C1000C4E909550CF06EF9206428460CF0CCF894
:102C2000606438BD58DE002010DE0020C8D00208E5
:102C30002DE9F04F8DB007924FF4C072DDF81C8083
:102C400001900B91B3FBF2F306936C4B5B6A059317
:102C50000023DDE906210A44424508D81BB1674B31
:102C60004FF4C8629A6206980DB0BDE8F08F4FEA43
:102C70000813059A059908F101084FF0000BB3FB02
:102C8000F2F201FB12334FF4C8415B0001FB023347
:102C90000293019B03F5807C9946029B584A93421C
:102CA00000F2998003F5C8650B9BCDF80C901D448C
:102CB0000CF108030A930CF1FF33039F00260493E1
:102CC000A5F5C8630893089B02374E48334417F8AC
:102CD00002EC0993049B13F8012F04934A4B53F819
:102CE0002210049B93F8403050F82340474850F896
:102CF0002330474850F822201344464A10461444D3
:102D000000EB234304EB0E020144089892F800A163
:102D100003EB0E028E4492F800214FEADA0A9EF885
:102D200000E19208520142EACA2242EADE028253DC
:102D300017F801EC099804EB0E0292F800A103EBDE
:102D40000E028E4492F800214FEADA0A9EF800E162
:102D50009208520142EACA2242EADE02428097F811
:102D600006E004EB0E0292F800A103EB0E028E4483
:102D700092F800214FEADA0A9EF800E19208520127
:102D800042EACA2242EADE02AA53FA791344144400
:102D9000114493F8003194F800419B0891F8002108
:102DA000E4085B0143EAC42343EAD203AA190436C8
:102DB0005380102E87D1039B0CF1040C1035403347
:102DC00003930A9B63457FF476AF029B09F11009D8
:102DD00003F5486302930BF1020BBBF1100F05D111
:102DE000019B03F5C0730193012332E7BBF1080F88
:102DF00004BF019B03F180094FE700BF9C1E012027
:102E0000FFB70B009C1A01209C1601209C12012088
:102E10009C0E012004D102082DE9F04F1B0A8DB051
:102E200005934F4B06925A6ADDF818E002929A6AAF
:102E30001B690A9103920793DDE905321344734538
:102E400003D805980DB0BDE8F08F4FEA0E13029A33
:102E5000029C0EF1010E039900F180078246B3FB3C
:102E6000F2F204FB123351435B0003EBC103009306
:102E700008230493079B009A934269D90A9BD04682
:102E800003EB020907F1080308937B1E002401935A
:102E900008F101030B9309EB840318F814C009939C
:102EA000019B13F8012F01932E4B53F82250019BE5
:102EB00093F840102C4B53F821602C4B53F8211001
:102EC0002B4B53F8222011442A4A1346164403EB95
:102ED000214106EB0C021D440B9B92F800B101EB63
:102EE0000C02AC4492F800214FEADB0B9CF800C1C5
:102EF0009208520142EACB2242EADC0229F824205D
:102F000013F814200134099B114416441544042C71
:102F100091F8001196F800614FEA910195F80021AF
:102F20004FEAD6064FEA411141EAC62141EAD201F1
:102F30005980B0D10437089B09F1100908F1400805
:102F4000BB42A2D1009A0AF1080A039B1A440092DC
:102F5000049B013B04938DD100F580706CE700BFAA
:102F60009C1E01209C1601209C1A01209C1201200D
:102F70009C0E012004D102082DE9F04F9246C02298
:102F800089B0B3FBF2F30493344B079151465A6A6C
:102F900000929A6A1B6901920593049B53448B42E9
:102FA00003D8049809B0BDE8F08FCB00009A009DCB
:102FB0000131019C00F140068446B3FBF2F205FBAF
:102FC0001233544308225B00039203EBC403059AB7
:102FD0009A423CD9079A06F1FF3ED4180CF1FF3211
:102FE000029204F110020692029F1EF8018F17F858
:102FF000012F9EF840901A4D02971A4F2A441A4DFD
:1030000057F82970174497F800B155F82870174DF4
:103010004FEADB0B174455F82990154D97F80071CE
:1030200055F82880FF08C14447EACB2702EB294224
:1030300092F80021920847EA4217069A24F8027B88
:103040009442D1D1019A08360CF1080C1344039A2A
:10305000013A0392BBD1C0309FE700BF9C1E012004
:1030600004D102089C1A01209C1601209C12012008
:103070009C0E01202DE9F04F85B00446980902917D
:1030800002EB93131A490393D1E909890969019164
:10309000039B934202D805B0BDE8F08FD300A4464D
:1030A00001320827B3FBF8F108FB113309FB01F5E6
:1030B0005B0003EBC5030199994215D90299E246D9
:1030C000194401F1100B1AF8016BF508B6084FEA24
:1030D000C52E4EEA461E45EA0E0521F8025B59450B
:1030E000F1D10CF1080C4B44013FE4D14034CFE75F
:1030F0009C1E01202DE9F04F85B00546FF27180AD8
:10310000029102EB132327490393D1E9099A096934
:103110000091039B934202D805B0BDE8F08FD10027
:10312000AE4601324FF0080CB1FBF9F309FB131165
:103130000AFB03F4490001EBC401009B8B422BD92D
:10314000029B74465E1806F11003019394F8C08048
:10315000013494F83F3014F801BC13FB08F31BFB57
:1031600008FBB3FBF7F3BBFBF7FB9B104FEAEB0B42
:103170005B0143EACB2394F87FB01BFB08FBBBFB4E
:10318000F7FB43EADB039BB226F8023B019B9E421E
:10319000DCD10EF1080E5144BCF1010CCDD105F586
:1031A0008075B6E79C1E0120F0B5C3688668056887
:1031B00006FB03F7274C4068102D4FEA47072560B0
:1031C000A360E660276160603AD1012820D113F046
:1031D0000F00214F18BFC0F110000F606061102078
:1031E0006169194461625900A162B3FBF5F105FB05
:1031F0001133C4E9075003B10131B6FBF0F300FB12
:10320000136606B1013359430020E1621160F0BD3D
:10321000022809D113F00F00104F18BFC0F11000A1
:103220000F6060610820DBE70D48086013F00701BC
:1032300002D0C1F1080100E0002108256161F1E739
:103240000DB90848F1E7302D01D10748EDE701201D
:10325000DDE700BF9C1E0120312C0008192E00085C
:10326000792F000875300008F53000082DE9F04F7F
:10327000DFF850C20023DFF8508244F68B4B7E4FBC
:1032800049F2456A7D4E41F62F597D4D7D4C7E4871
:103290007E490BFB03F24EF62F3E02F5004212145C
:1032A00048F8042B0AFB03F202F5004212144CF812
:1032B000042B09FB03F202F50042121447F8042B19
:1032C000734A5A4302F50042121446F8042B714A1D
:1032D0005A43013302F50042B3F5807F4FEA2242A0
:1032E00045F8042B43F34F0244F8042B6A4A02FBCF
:1032F00003E249F2D04E4FEA224240F8042B674ADB
:1033000002FB03E24FEA224241F8042BC1D1644C94
:103310000022D30025460021072940F2A680072A73
:103320008CBF03F1780003F138000131013325F837
:10333000020B1029F0D101322034102AE9D10020EB
:10334000DFF888E1DFF88881DFF88891DFF888A16D
:1033500044080025C300E4001FFA83FCA4B2420124
:10336000C5F34F034F4F013519196344102D89B22E
:103370009BB201F5807603F1800B03F1C003B6B276
:1033800028F80230BE52484F2AF8026027F802B0EF
:1033900001F5A07B01F5C0712EF802B029F80210EA
:1033A00002F10202DCD101301028D1D10021DFF876
:1033B0002C91DFF82C810846DFF828E1DFF828C1DE
:1033C00083B201EB090701EB080601EB0E0503F1DF
:1033D000080201EB0C0492B203F1400A27F8023B09
:1033E00026F802AB03F1800A25F802AB03F1C00A0C
:1033F000013324F802AB9BB29342EDD10830103177
:103400004028DDD1294D0023294C2A482A49DFF8DC
:10341000DCE0DFF8DCC0294F294E0EFB03F2A2F5F9
:103420003202A2F57442121445F8042B0CFB03F28D
:10343000A2F56202A2F5A042121444F8042B07FB85
:1034400003F202F5B60202F5D04240F8042B06FB67
:1034500003F2013302F53012B3F5807F02F54062CA
:1034600041F8042BD9D1BDE8F08F072A8CBF03F1B6
:103470004000184659E700BF9CF200209C0601203E
:103480009CF600209C0201209CFA00209CEE00206B
:10349000D1D4FFFF30ABFFFFD194FFFF30EBFFFF34
:1034A0009CEC00201CEA00201CE800209C1A012053
:1034B0009C1601209C1201209C0E01203049FFFF28
:1034C000E8A7FFFF9CFE00209C0A01209CE500204D
:1034D0009CE300201CE100201CDF00201CEC0020ED
:1034E0009CE700201CE300209CDE0020E866010031
:1034F000A0C50100014900200DF030BA0D150008EB
:1035000008B564200BF040FCFBE7000000B54FF469
:10351000407395B041F2883217480C93062306A9F0
:1035200006930023CDE90D330F930B931393CDE94D
:10353000113309F043FFE0B9022301224FF4800167
:1035400004900D48CDE900331023CDE90232052364
:103550006A46CDE905134FF0407306A90F9341F277
:1035600088330AF02CF8003818BF012015B05DF838
:1035700004FB0120FAE700BF6C1F012010B594B0D6
:1035800010220021022409A827F02AFA142200217F
:1035900002A827F025FA1E4B192107A81A6C42F041
:1035A00080521A641B6C03F080530093009B194BEC
:1035B0001A6842F440421A6001221B6803F4404337
:1035C0000193019B4FF48033CDE907234FF480032F
:1035D000CDE90D434FF4C873CDE90F130723CDE9AF
:1035E000114413930AF07EF809F07CFD0F230020AC
:1035F0000621CDE902344FF4A053CDE904034FF482
:10360000805302A806930AF05FFA14B010BD00BF01
:10361000003802400070004038B50D4A00250D4CBE
:103620000D4B20462562C4E900230123C4E904555B
:10363000C4E90253C4E9065508F0E4F929462046D6
:1036400008F009FC29462046BDE8384008F029BCAE
:103650000060004078210120FFEAC0002DE9804889
:10366000BDB01022002101242EA81C2627F0B8F995
:10367000032506F0EBFF4FF0005ECB4B2EA8ADF814
:10368000B84040F20117CDE92FE3C84B319306F063
:10369000FBFF4FF010438DF8B94000242EA82F9364
:1036A0008DF8C0608DF8C340ADF8C64006F0ECFF61
:1036B00002232EA88DF8C3508DF8B9301923ADF828
:1036C000C6708DF8C03006F0DFFF4FF040432EA8E3
:1036D0008DF8C06004262F938DF8B9508DF8C34043
:1036E000ADF8C64006F0D0FF17232EA88DF8B960BC
:1036F0008DF8C0308DF8C350ADF8C67006F0C4FF29
:10370000304606F0B1FFBFF34F8FBFF36F8FA84A6B
:10371000C2F85042BFF34F8FBFF36F8F536943F42A
:1037200000335361BFF34F8FBFF36F8FC2F88440F4
:10373000BFF34F8FD2F8803043F6E074C3F3C90073
:10374000C3F34E335B0103EA0406014646EA817582
:103750000139C2F86052F9D2203B13F1200FF2D1A7
:10376000BFF34F8F536943F480335361BFF34F8FDF
:10377000BFF36F8F8F4E06F067FCFFF7FFFE14223A
:1037800000212EA827F02CF9336B01224FF40041C1
:1037900043F01003884801254FF4004733630024A9
:1037A000336B4FF0030B4FF002084FF0040A03F0A5
:1037B00010034FF480690493049B336B43F00203BE
:1037C0003363336B03F002030593059B336B43F0C4
:1037D00040033363336B03F040030693069B336B64
:1037E00043F008033363336B03F008030793079B2D
:1037F000336B43F004033363336B03F00403089328
:10380000089B336B43F480733363336B03F480732F
:103810000993099B336B43F020033363336B03F04D
:1038200020030A930A9B336B43F400733363336BB7
:1038300003F400730B930B9B336B43F080033363F0
:10384000336B03F080030C930C9B336B43F0010349
:103850003363336B03F001030D930D9B07F0AAFF55
:103860000022C021554807F0A5FF002240215448FE
:1038700007F0A0FF002202214F4807F09BFF2EA96E
:103880004D48CDE92E75CDE9305507F00FFEC02328
:103890002EA94A48CDE92E35CDE9304B07F006FE7A
:1038A00040232EA94648CDE92E35CDE9304B07F00F
:1038B000FDFD2EA94048CDE92E85CDE9304B07F01E
:1038C000F5FD336B2246052143F480033820336332
:1038D000336B1C2603F480030393039B06F064FE02
:1038E000382006F093FE22460521392006F05CFEC2
:1038F000392006F08BFE394622462F4807F05AFF42
:10390000142006F0C5FB39462A462B4807F052FF23
:103910000A2006F0BDFB2422214617A8109427F0A8
:103920005FF81822214611A8264F27F059F83422B3
:1039300021462EA827F054F82C22214620A827F053
:103940004FF8214B64200EA9C7E900340523CDE9C7
:103950000E033846C7E902A507F05CFA17A93846F6
:103960001F94CDE91754CDE91944CDE91B44CDE9A5
:103970001D4407F07BFC21234FF00F0C11A93846A2
:10398000CDE9116319234FF40026CDE913C3CDE926
:10399000154407F02EFC5146384607F019FC42F258
:1039A0001071384612E000BF12000003010001014F
:1039B00000ED00E000380240002402400008024010
:1039C00000140240CC210120006C014007F058FD9A
:1039D0004FF48071384607F0BAF94FF4807E4FF407
:1039E00000734FF480524FF480414FF40030CDF813
:1039F000E880CDE92EE34FF40063CDE930934FF436
:103A000000534FF01009CDE932234FF48033CDE954
:103A100034134FF480232EA9CDE936034FF0807381
:103A20003846CDE9386307F09FFBC82320A9384604
:103A30002A95C64ECDE92239CDE92044CDE9244A64
:103A4000CDE92684CDE9284407F01CFB2146384601
:103A500007F007FB2146342220A826F0C1FFBC4A0C
:103A60004FF0CA0C4FF0CB0E3046C6F82080B4861B
:103A700086F83640C6E900244FF4F172C6E909C25F
:103A800040F2E312C6E90244C6E90BE2C6E9044586
:103A9000C6E9065809F0F0F9FF214FF48060C82309
:103AA0004FF4F0722094ADF8B0402B928DF8B240F4
:103AB000CDE925140521CDE927014FF040413046DD
:103AC000CDE92913CDE9232820A92246CDE92134C7
:103AD00009F09EFA32683846936923F00103936136
:103AE00007F02AFC2946404606F046F8282315220E
:103AF00021463846009407F052FC2EA938463894E7
:103B00002027CDE92E44CDE93044CDE93244CDE93A
:103B10003444CDE9364407F027FB22464FF4487180
:103B2000304609F0A3FA32688A4E4FF4006C93696C
:103B30002EA930462B439361874BB462CDF8B880F1
:103B4000C6E900344023C6E904734FF4C0734FF450
:103B50004077C6E906344FF48053C6E908C307230B
:103B6000C6E9024ACDE92F3ACDE93138CDE9338BA8
:103B70000AF024FB4FF6FF7220A930461194CDE9DC
:103B80002059CDE922540AF039FB284606F080FA84
:103B90004FF6FF7220A93046CDE92089CDE92254A5
:103BA0000AF02CFB08234FF6FF7220A93046CDE91E
:103BB0002234CDE920B90AF021FB4FF40C734FF603
:103BC000FF7220A911933046119B22952393CDE9D2
:103BD00020A90AF013FB40F22A7130465F4E0AF02A
:103BE0002CFB43F2D2024FF0204330461A6003F51B
:103BF00080533462C6E900351923C6E90299C6E943
:103C00000437C6E9064409F087FB3497662741F27A
:103C100088322EA930462E97379433943B94CDE9C1
:103C20003544CDE9394409F0C9FB002840F0BB8098
:103C3000992441F288322EA930462E9409F0BEFB19
:103C4000002840F0B0804FF4807341F288322EA9F2
:103C5000304634932E9709F0B1FB002840F0A38042
:103C600041F288322EA930462E9409F0A7FB044673
:103C7000002840F098804FF47A7006F009FA4FF46B
:103C8000800320AA2EA925934FF480733046CDF8E7
:103C90008890349305232E934FF08073379341F22D
:103CA0008833CDE92045CDE9235409F088FC00286C
:103CB00079D14FF48073339041F288322EA9349336
:103CC00005232E934FF08073CDE93500CDE93850B0
:103CD000CDE93A003046379309F070FB002862D1F5
:103CE00041F2883217A9304609F009FC00285AD160
:103CF0004FF480733790339041F288323493062327
:103D00003B902EA92E93CDE93500CDE93900304600
:103D100009F054FB002846D100232C4623954FF090
:103D2000807524934FF4800320AA2EA925930523A0
:103D30003046CDF888902E9341F288333795CDE9FF
:103D4000208809F03CFC70BB0AE000BFB81F0120CE
:103D500000680140EC1E0120400100A06C1F012002
:103D60004FF48073339041F288322EA934939DF83A
:103D70005C302E9443F040033795CDE93500CDE912
:103D80003840CDE93A0030468DF85C3009F016FB3A
:103D900048B941F2883217A9304609F054FB10B9EE
:103DA000282006F075F94FF4807341F288322EA96D
:103DB000B648349335232E930023CDE9353337931A
:103DC00033933B93CDE9393309F0F8FAD0B9402267
:103DD000412301212490AD48CDE92023102320AABE
:103DE000CDE922314FF480032EA925934FF440737F
:103DF000349305232E934FF04073379341F2883369
:103E000009F0DDFBB7234FF4407420930023269480
:103E1000299325932D93CDE92733CDE92B33FFF754
:103E200075FB18BB41F2883220A9984809F0C6FA00
:103E3000E0B9052333903B9017AA2E934FF04073BF
:103E400017902EA93793012334941893CDE91A3093
:103E5000102319934FF48003CDE93500CDE93900E3
:103E60001C9341F28833894809F0A9FB05234FF4DC
:103E700040764FF0407401252E93002341F28832A2
:103E80002EA98248349637943393CDE93533CDE962
:103E90003853CDE93A3309F091FA00284FD141F275
:103EA000883220A9794809F02AFB002847D1152338
:103EB000339041F288322EA934962E933794CDE96F
:103EC0003500CDE93850CDE93A00704809F076FA6E
:103ED000A8BB41F288320DF181016C4809F00FFB5B
:103EE00068BBFFF713FB50BB0223C02234962E950C
:103EF00037943390CDE93500CDE93830CDE93A003B
:103F000092FAA2F203219DF88130B2FA82F25F4860
:103F100003F03F0301FA02F22EA9134341F2883263
:103F20008DF8813009F04AFA48B941F2883220A967
:103F3000564809F088FA10B9282006F0A9F8052398
:103F40004FF440764FF0407401252E93002341F248
:103F500088322EA94D48349637943393CDE93533C2
:103F6000CDE93853CDE93A3309F028FA00284BD18E
:103F700041F2883220A9454809F0C1FA002843D10E
:103F80001523339041F288322EA934962E9337941C
:103F9000CDE93500CDE93850CDE93A003B4809F08C
:103FA0000DFA88BB41F288320DF18101374809F0E2
:103FB000A6FA48BBFFF7AAFA30BB022307223496C1
:103FC0002E9537943390CDE93500CDE93830CDE9E1
:103FD0003A0092FAA2F206219DF88130B2FA82F2FA
:103FE0002A4823F0070301FA02F22EA9134341F2F3
:103FF00088328DF8813009F0E1F928B941F2883230
:1040000020A9224809F01FFA4FF44073002420AA87
:104010001F4D3493EC232EA91C482E934FF440637C
:104020003B94012635934FF440531A4F31934FF090
:104030004073CDE936430A23CDE939443393CDE9C2
:10404000204409F00DFB144B2846C5E90034C5E9AE
:104050000244C5E90E44C5E91044C5E9124406F01E
:1040600043FD012128460D4D06F000FEFFF7D4FA6E
:10407000FCF7E3FC0A480B4B848003600662C0E94E
:10408000054406F02DFB084B10E000BF6C1F01201B
:10409000E82101200020014000B0024064220120FC
:1040A0004022012000300240001005504A480360C1
:1040B00008F0ACF8102221462EA826F091FC4FF40F
:1040C00080332846AC602C61AC6185F82040EC6000
:1040D000EE6185F830406E61C5E900734FF08053A2
:1040E000C5E90A4305F0E6FF06232EA928463094C9
:1040F000CDE92E3606F096F9284606F081F81C2206
:10410000214620A81994354DCDE9174426F068FCC6
:104110002C2221462EA826F063FCDFF8E8C063239A
:104120002846AC60C5E900C343F67F63C5E9054492
:10413000C5E903340AF008FB17A928461994CDE90C
:1041400017440AF079FC4FF0600E4FF4FA53224600
:1041500020A928462694CDE920E3CDE92244CDE9E3
:1041600024440AF059FB4FF400532EA928463294F8
:1041700035943894CDE933344FF00073CDE92E44B3
:10418000CDE93634CDE930440AF0A0FC214628467A
:104190000AF050FC284600F0E1FAFCF750FCFCF76E
:1041A0004DFC0AF063FD0E4A21460E480AF098FDC8
:1041B0000D4B0E4A214618600D480AF091FD0D4B3B
:1041C0000D4A214618600D480AF08AFD0C4B186014
:1041D0000AF066FDFEE700BF20210120201F01201C
:1041E00070D4020801350008E81E01204CD40208F2
:1041F0004D0A0008E41E012028D40208C52B00083F
:10420000E01E01200000014008B506F077F8024BDF
:1042100080B2188008BD00BFDC1E01200268034B7D
:104220009A4201D105F022BF704700BF0010004044
:10423000704700000D4B82B00F216FF001001A6C27
:1042400042F080521A641A6C02F080520092009A76
:104250005A6C42F480425A6400225B6C03F480433F
:104260000193019B02B006F09FB900BF00380240E5
:1042700010B588B004461422002103A826F0B0FB34
:104280002268144B9A4223D103F58C3303A91248B8
:104290005A6C42F480725A645A6C02F48072019231
:1042A000019A1A6B42F001021A6340221B6B03F061
:1042B00001030293029B0323CDE9032307F0F6F8E1
:1042C00012200022052106F06FF9122006F09EF957
:1042D00008B010BD0020014000000240026882B01A
:1042E000084B9A420BD1D3F8302803F5006342F40F
:1042F00080521A631B6B03F480530193019B02B03D
:10430000704700BF003002400E4B07B502689A426A
:1043100015D1A3F5F04305215A201A6B42F400028F
:104320001A6300221B6B03F400030193019B06F048
:104330003BF95A2003B05DF804EB06F067B903B00F
:104340005DF804FB00B0024010B588B004461422AA
:10435000002103A826F044FB2268154B9A4225D180
:1043600003F54C4303A913485A6C42F000625A64A7
:104370005A6C02F000620192019A1A6B42F40072C8
:104380001A6304221B6B03F400730293029B022343
:10439000CDE903230D23079307F088F8622000225C
:1043A000052106F001F9622006F030F908B010BDD1
:1043B000006C014000240240F0B5ADB00446142268
:1043C000002103A826F00CFB9022002108A826F06B
:1043D00007FB2268254B9A4246D14FF4003308A8C8
:1043E000089309F03DFC08B1FFF722FF204C12278B
:1043F00001260325236B03A91E4843F00203236310
:10440000236B03F002030093009B236B43F008032C
:104410002363236B03F008030193019B8023CDE901
:1044200003370B23CDE90565079307F03FF84FF4F9
:10443000805303A91048CDE903370423CDE905656E
:10444000079307F033F8236C5F200022052143F027
:1044500080732364236C03F080730293029B06F045
:10446000A3F85F2006F0D2F82DB0F0BD0060004048
:104470000038024000040240000C0240026808B507
:104480000B4B9A4212D10B4A80210B48136C23F03C
:104490008073136407F0EEF808484FF4805107F07A
:1044A000E9F85F20BDE8084006F0BEB808BD00BFCF
:1044B000006000400038024000040240000C02404E
:1044C00037B5354B054602689A4262D1334B4FF4FB
:1044D0008061334C04205A6B4FF4000CDFF8CCE0C1
:1044E00042F002025A6340225B6B03F00203019325
:1044F000019B4FF09053C4E900E30023C4E9022379
:104500004FF480522362C4E904124FF48042C4E99C
:1045100006230323C4E909034FF400132046C4E92A
:104520000BC306F053F908B1FFF782FE2C634FF07E
:1045300090531C4A4FF48061A56304201A4C4FF439
:10454000000CC4E900234FF480520023C4E9041294
:104550004FF480422362C4E90233C4E906230323F3
:10456000C4E909034FF400132046C4E90BC306F065
:104570002DF908B1FFF75CFE6C63002205216C2069
:10458000A56306F011F86C2003B0BDE8304006F0DA
:104590003DB803B030BD00BF0010055000380240E8
:1045A000C0200120286402406020012010640240E5
:1045B00010B5A6B004469022002102A826F010FAF9
:1045C0002268144B9A4222D10823072002934FF409
:1045D000C07307930223CDE90830012302A80C938E
:1045E00009F03EFB08B1FFF723FE0B4B58200321D7
:1045F0005A6C42F080625A6400225B6C03F0806364
:104600000193019B05F0D0FF582005F0FFFF26B075
:1046100010BD00BF00680140003802401422002194
:104620002DE9F0418AB004460DEB020026F0D8F9DE
:1046300022683A4B9A426ED1394B0225032409264F
:104640009A694FF0040805A9364842F00202002793
:104650009A619A6922F002029A619A6B42F0020210
:104660009A639A6B02F002020092009A1A6B42F06F
:1046700010021A631A6B02F010020192019A1A6B6F
:1046800042F002021A631A6B02F002020292029ACC
:104690001A6B42F004021A631A6B02F004020392CE
:1046A000039A1A6B42F008021A631B6B03F00803AB
:1046B0000493049BCDE90585CDE9084606F0F6FE96
:1046C000402305A91848CDE905350123CDE9073474
:1046D0000A23099306F0EAFE4FF4C06305A91348C4
:1046E0000996CDE90535CDE9077406F0DFFE05A989
:1046F0000D480996CDE90585CDE9077406F0D6FE8B
:104700004FF4005305A90A480996CDE90535CDE9CE
:10471000077406F0CBFE0AB0BDE8F081001000A0DF
:10472000003802400010024000040240000802402D
:10473000000C0240026882B0074B9A420AD103F58E
:104740009C335A6C42F001025A645B6C03F0010323
:104750000193019B02B070470000014010B586B084
:1047600004461422002101A826F03AF922680D4BD4
:104770009A4215D103F59C3301A90B481A6B42F0FC
:1047800001021A634FF480721B6B03F00103009364
:10479000009B0223CDE901230123059306F086FE49
:1047A00006B010BD0000014000000240F0B500233B
:1047B00087B003932A4B1E68002E4FD10122022797
:1047C00003250C241A6001A9264B27489A6B42F056
:1047D00001029A639B6B03F001030093009B4FF669
:1047E0008373CDE90454CDE9013706F05FFE48F24A
:1047F000331301A91D480594CDE90137CDE90365BF
:1048000006F054FE4CF2037301A919480594CDE952
:104810000137CDE9036506F049FE40F2FF6301A9C7
:1048200014480594CDE90137CDE9036506F03EFE55
:104830004FF63F0301A910480594CDE90137CDE9B2
:10484000036506F033FE4FF62C7301A90B4805945F
:10485000CDE90137CDE9036506F028FE07B0F0BDCC
:10486000AC22012000380240001002400018024033
:10487000000C02400020024000140240001C0240D4
:10488000214B1A6C42F0100270B51A6488B01B6C90
:10489000054601A903A803F010030293029B09F047
:1048A000C1F9069B4BBB09F0ADF9184E184B3360AC
:1048B00040F2E733F360174BB0FBF3F3013B3046B4
:1048C000736000233361B360B36109F00DFF0446E8
:1048D00080B9304609F0B0FD044658B9362005F0DD
:1048E00095FE0F2D0DD822462946362005F05CFE98
:1048F000094B1D60204608B070BD09F083F94000E7
:10490000D3E70124F6E700BF00380240B0220120BF
:104910000010004040420F00680000207047FEE792
:10492000FEE7FEE7FEE77047014805F0ECBC00BF7C
:1049300064220120014809F0C1BD00BFB02201205E
:10494000014806F011B800BFC0200120014806F060
:104950000BB800BF6020012008B505F093FB054AA5
:10496000054913681B1A0B6010600448BDE8084035
:1049700008F0F1BA00230120FC220120B81F012019
:10498000014806F0E9B800BFE8210120014807F01E
:104990005BBA00BF78210120014806F0F0BA00BFE1
:1049A000CC210120014808F083B900BF202101205B
:1049B0000120704708B526F0C7F8162303604FF0B2
:1049C000FF3008BD08B526F0BFF816230360FEE7E8
:1049D00070B50D4614460E46731B9C4201DC204602
:1049E00070BDAFF3008006F8010BF5E770B50D461A
:1049F00014460E46731B9C4201DC204670BD16F81F
:104A0000010BAFF30080F5E74FF0FF3070474FF434
:104A1000005300204B607047012070470020704712
:104A20000A4A116808B5034609B9094911601068B6
:104A3000694603448B4206D926F086F80C230360AE
:104A40004FF0FF3008BD1360FCE700BF04230120D6
:104A500010860220704710B50446042125F0ADF9F8
:104A6000204610BD012908B506D0022908D059B941
:104A700004F074FF006808BD04F070FF4068FAE7B6
:104A800004F06CFF8068F6E70020F4E70048704708
:104A9000A8D402080120704713B5002451B103685F
:104AA00001AA01948DF803409C680DF10303A0470F
:104AB00002B010BD0846FBE7C0897047008A704706
:104AC000C088704780887047807A00F07F00704708
:104AD000807AC00970470020704700009FED010AEE
:104AE000704700BF00000000704710B50446082161
:104AF00025F063F9204610BD7047704700F59873A4
:104B00000868496803C37047704770474160704741
:104B100070470000064BC0F84801C0F84C31002334
:104B2000C0F8503100F5A273C0F84031704700BFA3
:104B3000D54B00080123037270477047704710B4CB
:104B400041680346C2689B68541001EB6200D207BB
:104B500048BF0A595DF8044B48BFD358184703466D
:104B6000406830B19A681AB9D86800F001007047FF
:104B70000120704710B504460C2125F01EF920468F
:104B800010BD10B50446102125F017F9204610BDC0
:104B900010B504464FF4AE7125F00FF9204610BD54
:104BA00010B513F013FB0368BDE81040DB6B18472A
:104BB00010B50446D0F8400158B10368DB68984747
:104BC00038B1D4F8400103689B6898470023C4F8C3
:104BD000403110BD2DE9F14FD0E9556A0746B06864
:104BE00003681B6A984743F2D743984205D8444B61
:104BF000A321444A444825F057FC706803681B6AA7
:104C000098470F2803D8414BA4213E4AF2E7F068A9
:104C100003681B6A98470B2803D83D4BA521394AE6
:104C2000E8E7DFF8F49013F0D1FA043013F0F3FA68
:104C3000D9F8000010B10368DB689847D9F8000084
:104C400010B103681B689847DFF8D080D8F80000DF
:104C500010B103685B699847D7F83C0110B103684D
:104C60005B689847D8F8000010B103681B68984744
:104C7000D7F83C0110B103689B689847F0680021A1
:104C80004FF0000B03685B6A9847224B0446C0F85C
:104C900004B080F808B059460360B06803685B6AE6
:104CA0009847054604F0DCFE7068594603685B6A65
:104CB00098470646294604F0B1FE331DC7F83C610B
:104CC0002846C9F80040C8F80050CAF800302B68E0
:104CD000C6F808A0DB68EE639847336830461B6867
:104CE00098472146284615F02FFB236820461B696C
:104CF0009847236820465B6901B0BDE8F04F18472C
:104D0000CCD402085AD502082CD6020873D6020861
:104D100016D7020830D80208207A02201C7A022016
:104D2000044B1B6893F858200AB1D86C00B99868F6
:104D3000704700BFD8790220F8B5044617460E46E2
:104D400013F00AFB104B00251C6029460F4B236013
:104D50000F4BC4E951350F4B1868C4E9535503682C
:104D6000C4E94F559B68C4E955769847284604F036
:104D7000A9FDFFF7D5FF1CF05EFFFFF7D1FF1CF088
:104D8000D5FF2046F8BD00BF2C7A0220DCD70208F0
:104D9000C4D70208D8790220064BC0F84801C0F8F1
:104DA0004C310023C0F8503100F5A273C0F84031F7
:104DB000704700BFD54B0008406A7047806A704753
:104DC00070478B88C069DB0A0A6850F823001044DA
:104DD000704710B50446BAB1107B68B1537BD27AE4
:104DE0001B0203F4E0631A43236A03EB82031A886D
:104DF0008A4202D193F9020010BD05D8013804336C
:104E000080B20028F3D1F7E70020F5E710B504469B
:104E10002C2124F0D2FF204610BD000030B58BB00D
:104E20000446BDF860500895BDF85C5007959DF8A4
:104E3000505006959DF84C5005959DF848500495A6
:104E40009DF8445003959DF8405002959DF83C50C4
:104E50000195BDF83850009514F002FE064B20462F
:104E60002360159BE361169B2362199B63621A9B67
:104E7000A3620BB030BD00BF54D80208806A7047EF
:104E80007047704770477047704780F82C10704724
:104E900010B40368046BD3F8A430624361435DF837
:104EA000044B1847D0ED0C7A0368F8EEE77A10B49B
:104EB00020EE270AD3F8A440B5EEC00AF1EE10FAAE
:104EC0001ADBB6EE007A30EE070ABDEEC07A17EEB6
:104ED000101A60EEA70AF5EEC00AF1EE10FA1EDB1A
:104EE000F6EE007A70EEA70AFDEEE07A17EE902A51
:104EF00023465DF8044B1847BDEEC07AF8EEC76A4A
:104F000017EE103A013B30EE660AF7EE086A30EE13
:104F1000260ABDEEC00A10EE101A1944D9E7FDEEBC
:104F2000E07AB8EEE77A17EE903A013B70EEC70AE6
:104F3000B7EE087A70EE870AFDEEE00A10EE902ACE
:104F40001A44D5E710B40368046BD3F8B030624359
:104F50005DF8044B1847D0ED0C7A0368F8EEE77A59
:104F600010B427EE800AD3F8B040B5EEC00AF1EED7
:104F700010FA0BDBF6EE007A30EE270AFDEEC07A6F
:104F800017EE902A23465DF8044B1847FDEEC07AD1
:104F9000B8EEE77A17EE903A013B30EE470AB7EEEB
:104FA000087A30EE070ABDEEC00A10EE102A1A4445
:104FB000E8E710B40368446BD3F8BC306243614344
:104FC0005DF8044B1847D0ED0D7A0368F8EEE77AE8
:104FD00010B420EE270AD3F8BC40B5EEC00AF1EEBB
:104FE00010FA1ADBB6EE007A30EE070ABDEEC07A90
:104FF00017EE101A60EEA70AF5EEC00AF1EE10FAED
:105000001EDBF6EE007A70EEA70AFDEEE07A17EEF0
:10501000902A23465DF8044B1847BDEEC07AF8EE9F
:10502000C76A17EE103A013B30EE660AF7EE086ADF
:1050300030EE260ABDEEC00A10EE101A1944D9E768
:10504000FDEEE07AB8EEE77A17EE903A013B70EEAB
:10505000C70AB7EE087A70EE870AFDEEE00A10EE96
:10506000902A1A44D5E710B40368446BD3F8C030D3
:1050700062435DF8044B1847D0ED0D7A0368F8EEF3
:10508000E77A10B427EE800AD3F8C040B5EEC00A24
:10509000F1EE10FA0BDBF6EE007A30EE270AFDEEA9
:1050A000C07A17EE902A23465DF8044B1847FDEEB0
:1050B000C07AB8EEE77A17EE903A013B30EE470A35
:1050C000B7EE087A30EE070ABDEEC00A10EE102ADD
:1050D0001A44E8E7D0F82C31026B002B07DB02EB17
:1050E000430090FBF2F000EBD070401070476FF07F
:1050F000010101FB0320013890FBF2F000EBD070BE
:10510000401040427047D0ED4B7A90ED0C0AF8EE1B
:10511000E77AB8EEC00A87EE800A7047D0F82C0113
:105120007047D0F83031026B002B07DB02EB4300F5
:1051300090FBF2F000EBD070401070476FF001016F
:1051400001FB0320013890FBF2F000EBD07040101F
:1051500040427047D0ED4C7A90ED0C0AF8EEE77AB9
:10516000B8EEC00A87EE800A7047D0F83001704769
:10517000D0F83431426B002B07DB02EB430090FB8D
:10518000F2F000EBD070401070476FF0010101FBAE
:105190000320013890FBF2F000EBD0704010404249
:1051A0007047D0ED4D7A90ED0D0AF8EEE77AB8EE43
:1051B000C00A87EE800A7047D0F834017047D0F8F3
:1051C0003831426B002B07DB02EB430090FBF2F01F
:1051D00000EBD070401070476FF0010101FB03201D
:1051E000013890FBF2F000EBD07040104042704765
:1051F000D0ED4E7A90ED0D0AF8EEE77AB8EEC00ADF
:1052000087EE800A7047D0F838017047036870B5A0
:105210000446D3F888300D46164698472368324630
:1052200029462046D3F89030BDE8704018470368FF
:10523000D3F8943018470368D3F8D430184703687C
:10524000D3F8E03018470368002A10B4D3F8A4302C
:10525000046B0EDB04EB420292FBF4F101EBD17123
:105260004910B0F91E215DF8044B013A0A44494245
:1052700018476FF0010101FB0241013991FBF4F184
:1052800001EBD17149104942EBE70368D3F83C3197
:105290001847026B03685143D3F848311847036835
:1052A000D3F844311847D0ED0C7A0368F8EEE77A6A
:1052B000D3F8482127EE800AB5EEC00AF1EE10FAC5
:1052C00008DBF6EE007A30EE270AFDEEC07A17EE24
:1052D000901A1047FDEEC07AB8EEE77A17EE903AD2
:1052E000013B30EE470AB7EE087A30EE070ABDEE12
:1052F000C00A10EE101A1944EBE7C0F83C117047D1
:105300000368D3F850311847036810B5D3F85C31FF
:10531000044698470028236B07DB03EB400090FB13
:10532000F3F000EBD070401010BD6FF0010202FBF3
:105330000030013890FBF3F000EBD0704010404299
:10534000F2E70368D3F858311847036810B50446EC
:10535000D3F85C31984707EE900A94ED0C0AF8EE0A
:10536000E77AB8EEC00A87EE800A10BDD0F83C019B
:105370007047026B03685143D3F868311847D0ED8A
:105380000C7A0368F8EEE77AD3F8682127EE800AF2
:10539000B5EEC00AF1EE10FA08DBF6EE007A30EE58
:1053A000270AFDEEC07A17EE901A1047FDEEC07A7C
:1053B000B8EEE77A17EE903A013B30EE470AB7EEC7
:1053C000087A30EE070ABDEEC00A10EE101A194432
:1053D000EBE7C0F840117047036810B5D3F874319B
:1053E000044698470028236B07DB03EB400090FB43
:1053F000F3F000EBD070401010BD6FF0010202FB23
:105400000030013890FBF3F000EBD07040104042C8
:10541000F2E7036810B50446D3F87431984707EEF5
:10542000900A94ED0C0AF8EEE77AB8EEC00A87EE1F
:10543000800A10BDD0F84001704703680029026B54
:10544000D3F8843110B504460EDB02EB410191FB29
:10545000F2F101EBD171491009B220469847D4E925
:105460004F2302FB003010BD6FF0010000FB012153
:10547000013991FBF2F101EBD17149104942EBE79F
:10548000006B7047406B70470368D3F8483118478A
:105490000368D3F85C311847026B03685143D3F8B3
:1054A00014311847036870B5D3F818510446D0F882
:1054B0004461D3F8803198472B4656F82010204697
:1054C000BDE87040184703460846B3F91C21B3F9FC
:1054D0001E11914207DBB3F94C31191891FBF2F31D
:1054E00002FB131108B2704748017047C162704750
:1054F000C06A70470120704770477047C06B18B191
:105500000368D3F8803018477047B2F81A1130B5E5
:10551000B2F91441B2F940502144B2F8422044801B
:10552000521A002185800180C28030BD10B54280B2
:10553000BDF90840BDF90C2004808280C38010BDF5
:105540000B680846D3F8D43018470B680846D3F8E0
:10555000E0301847B1F914017047B1F81431B1F8CF
:105560001A21B1F842001344C01A00B27047B1F9D1
:1055700016017047B1F81631B1F81821B1F84000A2
:105580001344C01A00B270470B6808461146D3F89E
:105590001431184730B5B2F91651B2F81841B2F8C3
:1055A00040102C44B2F942200580091B0024C2801F
:1055B0004480818030BD02808380BDF90020BDF928
:1055C00004304280C38070470B680846D3F8EC3043
:1055D00018470B680846D3F8F8301847B1F9160198
:1055E0007047B1F81631B1F81821B1F840001344F2
:1055F000C01A00B27047B1F914017047B1F8143104
:10560000B1F81A21B1F842001344C01A00B2704731
:105610000B6808461146D3F8183118477047704791
:105620007047704710B50446402124F0C6FB204661
:1056300010BD10B50446402124F0BFFB204610BD2C
:1056400010B504464FF4747124F0B7FB204610BD2A
:1056500038B503460846D3E90C540B68D3F88C30B0
:105660009847294602462046BDE838400FF0EEBA7A
:1056700038B503460846D3E90C540B68D3F8943088
:105680009847294602462046BDE838400FF0DEBA6A
:10569000034B10B50446036011F016F9204610BD07
:1056A000E8DC0208064B10B50446036011F00CF963
:1056B00043F2D841204624F080FB204610BD00BFB5
:1056C000E8DC020808B590F82C300BB1FDF723F8A0
:1056D00008BD00000A1E10B503DBB0F91E4194425C
:1056E00006DC084B40F23961074A084824F0DCFE2A
:1056F0000368D0F84441D3F88031984754F820002B
:1057000010BD00BFB4D80208D7D8020826D90208B5
:105710000B1E10B5044603DBB0F91E219A4206DCCD
:10572000074B40F23361074A074824F0BDFE036887
:10573000D3F884319847D4E94F2302FB003010BDE1
:10574000B4D8020883D9020826D902082DE9F0410D
:105750001D460368044616461B6BBDF91870984732
:105760002368314620465B6B9847236829462046CC
:105770009B6B9847236839462046DB6BBDE8F041B8
:1057800018470000094A4FF48071026000228184AA
:10579000FF21826280F82610C0E90122C0E90322BD
:1057A000C0E90522C0E90722704700BF9CED02084E
:1057B00037B501AB154614F051FA00282A46019975
:1057C0004FEA40144FF0200004DB14F066FA204446
:1057D00003B030BD14F061FA201AF9E770B5B0F8E3
:1057E0001A310E46B0F91441B0F842502344ED1A74
:1057F0002DB22C44691ED0E94D32013CD21AF01A68
:10580000FFF7D6FFC0EB441070BD38B504460D4617
:10581000B4F81631B4F818110B44B4F84010C91A92
:10582000D0E94B0209B2121A281A0139FFF7C0FF5A
:10583000B4F9163100EB431038BD000010B5044632
:105840000EF0ECFD064A00230A21204622600122C8
:10585000E36284F83820E363C4E90C2110BD00BF83
:1058600040EC02084A09064BC16003EA112302F426
:10587000FC62C1F3C40113430B430382704700BFB2
:1058800000F8FFFFA0F10800ECE700BF2DE9F04FA2
:1058900004468BB0002614F0ABFBA146E94B04F1A3
:1058A0006C0B04F19805E663012749F8403B484634
:1058B000FFF768FF5846FFF765FFA0212846DFF88D
:1058C000B8A30FF05FF9E04B9F223146C4F898303F
:1058D00004F5F4732846DFF8A483C4E97736C4E9F5
:1058E0007576FFF7D5FAD94BA4F8E461C4F898307F
:1058F00004F58D6318460593FFF7A0FF04F5956343
:10590000C4F868A418460693FFF798FF04F59D6352
:10591000C4F8A88418460293FFF790FF04F5A56326
:10592000C4F8E8A44FF0020A18460393FFF786FF75
:1059300004F5AD63C4F828854FF07F4818460793F7
:105940000EF06CFDC24BC4F89465C4F8A0354FF658
:10595000FF73C4F89875A4F8A4352E23C4F89C6589
:10596000A4F8AC35BB4B84F8A865C4F8683504F2DC
:10597000B453A4F8AA651846C4F8B06508930EF0AD
:105980004DFDB54B84F8E0A5C4F8B43504F2E453FA
:1059900018460493FDF736F8B04B42F6E06104F583
:1059A000BF60C4F8E4352433C4F8F065C4F8EC35BE
:1059B00010F080FF4FF4F0733246484631460093B2
:1059C0004FF44873FFF7C2FE231D4946C4F86880B0
:1059D000184609930BF090FF4FF4F07332463146AE
:1059E000584600934FF448734FF4FA79FFF7AEFE30
:1059F0004FF0FF335946201DC4F894300BF07CFF64
:105A00004FF4F07332463146284600934FF4487302
:105A1000FFF79CFE324639462846FFF7F7FB632224
:105A200031462846FFF734FA1E2344220A2128462D
:105A3000009333460FF057F8334632463146284636
:105A400000960EF065FF40F6AC5231462846FFF74F
:105A5000B0FAD4F898140A203A46C4F8948448431B
:105A600084F8A0740028B8BF4042C4F89C040FF02A
:105A7000EDF8029B0599C4F8A434C4F89C042846A8
:105A8000C4F898740EF04FFFD4F8D8143A46C4F80E
:105A9000D48409FB01F084F8E0740028B8BF4042C8
:105AA000C4F8DC040FF0D2F8039B0699C4F8E43480
:105AB000C4F8DC042846C4F8D8740EF034FFD4F8D7
:105AC000181532203A46C4F81485484384F820A5B6
:105AD0000028B8BF4042C4F81C050FF0B7F802997F
